{
  "contractName": "TradeRiserCrowdsale",
  "abi": [
    {
      "constant": true,
      "inputs": [],
      "name": "PRE_ICO_MIN_CAP",
      "outputs": [
        {
          "name": "",
          "type": "uint256"
        }
      ],
      "payable": false,
      "stateMutability": "view",
      "type": "function"
    },
    {
      "constant": false,
      "inputs": [
        {
          "name": "_phase",
          "type": "uint256"
        }
      ],
      "name": "startIcoPhase",
      "outputs": [],
      "payable": false,
      "stateMutability": "nonpayable",
      "type": "function"
    },
    {
      "constant": true,
      "inputs": [
        {
          "name": "",
          "type": "uint256"
        }
      ],
      "name": "icoStages",
      "outputs": [
        {
          "name": "tokensPrice",
          "type": "uint256"
        },
        {
          "name": "tokensDistribution",
          "type": "uint256"
        },
        {
          "name": "discount",
          "type": "uint256"
        },
        {
          "name": "isActive",
          "type": "bool"
        }
      ],
      "payable": false,
      "stateMutability": "view",
      "type": "function"
    },
    {
      "constant": true,
      "inputs": [],
      "name": "ICO_FINISH",
      "outputs": [
        {
          "name": "",
          "type": "uint256"
        }
      ],
      "payable": false,
      "stateMutability": "view",
      "type": "function"
    },
    {
      "constant": true,
      "inputs": [],
      "name": "ICO_MIN_CAP",
      "outputs": [
        {
          "name": "",
          "type": "uint256"
        }
      ],
      "payable": false,
      "stateMutability": "view",
      "type": "function"
    },
    {
      "constant": true,
      "inputs": [],
      "name": "distributionAddress",
      "outputs": [
        {
          "name": "",
          "type": "address"
        }
      ],
      "payable": false,
      "stateMutability": "view",
      "type": "function"
    },
    {
      "constant": true,
      "inputs": [],
      "name": "tokensSold",
      "outputs": [
        {
          "name": "",
          "type": "uint256"
        }
      ],
      "payable": false,
      "stateMutability": "view",
      "type": "function"
    },
    {
      "constant": false,
      "inputs": [
        {
          "name": "_address",
          "type": "address"
        },
        {
          "name": "_value",
          "type": "uint256"
        }
      ],
      "name": "sendCrowdsaleTokensManually",
      "outputs": [],
      "payable": false,
      "stateMutability": "nonpayable",
      "type": "function"
    },
    {
      "constant": true,
      "inputs": [
        {
          "name": "",
          "type": "uint256"
        }
      ],
      "name": "preIcoStages",
      "outputs": [
        {
          "name": "tokensPrice",
          "type": "uint256"
        },
        {
          "name": "tokensDistribution",
          "type": "uint256"
        },
        {
          "name": "discount",
          "type": "uint256"
        },
        {
          "name": "isActive",
          "type": "bool"
        }
      ],
      "payable": false,
      "stateMutability": "view",
      "type": "function"
    },
    {
      "constant": false,
      "inputs": [
        {
          "name": "_phase",
          "type": "uint256"
        }
      ],
      "name": "stopIcoPhase",
      "outputs": [],
      "payable": false,
      "stateMutability": "nonpayable",
      "type": "function"
    },
    {
      "constant": false,
      "inputs": [],
      "name": "acceptOwnership",
      "outputs": [],
      "payable": false,
      "stateMutability": "nonpayable",
      "type": "function"
    },
    {
      "constant": false,
      "inputs": [
        {
          "name": "_phase",
          "type": "uint256"
        },
        {
          "name": "_tokenPrice",
          "type": "uint256"
        }
      ],
      "name": "changePreIcoStageTokenPrice",
      "outputs": [],
      "payable": false,
      "stateMutability": "nonpayable",
      "type": "function"
    },
    {
      "constant": false,
      "inputs": [
        {
          "name": "_phase",
          "type": "uint256"
        }
      ],
      "name": "startPreIcoPhase",
      "outputs": [],
      "payable": false,
      "stateMutability": "nonpayable",
      "type": "function"
    },
    {
      "constant": true,
      "inputs": [],
      "name": "owner",
      "outputs": [
        {
          "name": "",
          "type": "address"
        }
      ],
      "payable": false,
      "stateMutability": "view",
      "type": "function"
    },
    {
      "constant": false,
      "inputs": [
        {
          "name": "_phase",
          "type": "uint256"
        },
        {
          "name": "_tokenPrice",
          "type": "uint256"
        }
      ],
      "name": "changeIcoStageTokenPrice",
      "outputs": [],
      "payable": false,
      "stateMutability": "nonpayable",
      "type": "function"
    },
    {
      "constant": true,
      "inputs": [],
      "name": "PRE_ICO_FINISH",
      "outputs": [
        {
          "name": "",
          "type": "uint256"
        }
      ],
      "payable": false,
      "stateMutability": "view",
      "type": "function"
    },
    {
      "constant": false,
      "inputs": [],
      "name": "sendEtherManually",
      "outputs": [],
      "payable": false,
      "stateMutability": "nonpayable",
      "type": "function"
    },
    {
      "constant": true,
      "inputs": [],
      "name": "isPreIco",
      "outputs": [
        {
          "name": "",
          "type": "bool"
        }
      ],
      "payable": false,
      "stateMutability": "view",
      "type": "function"
    },
    {
      "constant": true,
      "inputs": [],
      "name": "ethCollected",
      "outputs": [
        {
          "name": "",
          "type": "uint256"
        }
      ],
      "payable": false,
      "stateMutability": "view",
      "type": "function"
    },
    {
      "constant": true,
      "inputs": [],
      "name": "ICO_START",
      "outputs": [
        {
          "name": "",
          "type": "uint256"
        }
      ],
      "payable": false,
      "stateMutability": "view",
      "type": "function"
    },
    {
      "constant": true,
      "inputs": [],
      "name": "PRE_ICO_START",
      "outputs": [
        {
          "name": "",
          "type": "uint256"
        }
      ],
      "payable": false,
      "stateMutability": "view",
      "type": "function"
    },
    {
      "constant": true,
      "inputs": [],
      "name": "newOwner",
      "outputs": [
        {
          "name": "",
          "type": "address"
        }
      ],
      "payable": false,
      "stateMutability": "view",
      "type": "function"
    },
    {
      "constant": true,
      "inputs": [],
      "name": "MIN_DEPOSIT",
      "outputs": [
        {
          "name": "",
          "type": "uint256"
        }
      ],
      "payable": false,
      "stateMutability": "view",
      "type": "function"
    },
    {
      "constant": true,
      "inputs": [],
      "name": "getCurrentStage",
      "outputs": [
        {
          "name": "",
          "type": "uint256"
        }
      ],
      "payable": false,
      "stateMutability": "view",
      "type": "function"
    },
    {
      "constant": false,
      "inputs": [
        {
          "name": "_newOwner",
          "type": "address"
        }
      ],
      "name": "transferOwnership",
      "outputs": [],
      "payable": false,
      "stateMutability": "nonpayable",
      "type": "function"
    },
    {
      "constant": false,
      "inputs": [
        {
          "name": "_phase",
          "type": "uint256"
        }
      ],
      "name": "stopPreIcoPhase",
      "outputs": [],
      "payable": false,
      "stateMutability": "nonpayable",
      "type": "function"
    },
    {
      "constant": true,
      "inputs": [],
      "name": "token",
      "outputs": [
        {
          "name": "",
          "type": "address"
        }
      ],
      "payable": false,
      "stateMutability": "view",
      "type": "function"
    },
    {
      "constant": true,
      "inputs": [],
      "name": "isIco",
      "outputs": [
        {
          "name": "",
          "type": "bool"
        }
      ],
      "payable": false,
      "stateMutability": "view",
      "type": "function"
    },
    {
      "inputs": [
        {
          "name": "_tokenAddress",
          "type": "address"
        }
      ],
      "payable": false,
      "stateMutability": "nonpayable",
      "type": "constructor"
    },
    {
      "payable": true,
      "stateMutability": "payable",
      "type": "fallback"
    }
  ],
  "bytecode": "0x6080604052600660025534801561001557600080fd5b50604051602080611ddc8339810180604052810190808051906020019092919050505080600360006101000a81548173ffffffffffffffffffffffffffffffffffffffff021916908373ffffffffffffffffffffffffffffffffffffffff1602179055507375b2ebbbefa94a206a8b15ca9efba2e314031f776000806101000a81548173ffffffffffffffffffffffffffffffffffffffff021916908373ffffffffffffffffffffffffffffffffffffffff16021790555073e9dd7dff9599f6228c59b2e5874163cde42250ec600460006101000a81548173ffffffffffffffffffffffffffffffffffffffff021916908373ffffffffffffffffffffffffffffffffffffffff160217905550610139610214640100000000026401000000009004565b600360009054906101000a900473ffffffffffffffffffffffffffffffffffffffff1673ffffffffffffffffffffffffffffffffffffffff16636596cff3306040518263ffffffff167c0100000000000000000000000000000000000000000000000000000000028152600401808273ffffffffffffffffffffffffffffffffffffffff1673ffffffffffffffffffffffffffffffffffffffff168152602001915050600060405180830381600087803b1580156101f657600080fd5b505af115801561020a573d6000803e3d6000fd5b5050505050610721565b60076080604051908101604052806106a48152602001600254600a0a624c4b40028152602001611b588152602001600115158152509080600181540180825580915050906001820390600052602060002090600402016000909192909190915060008201518160000155602082015181600101556040820151816002015560608201518160030160006101000a81548160ff02191690831515021790555050505060076080604051908101604052806106a48152602001600254600a0a625b8d80028152602001610fa08152602001600115158152509080600181540180825580915050906001820390600052602060002090600402016000909192909190915060008201518160000155602082015181600101556040820151816002015560608201518160030160006101000a81548160ff02191690831515021790555050505060076080604051908101604052806106a48152602001600254600a0a62989680028152602001610dac8152602001600115158152509080600181540180825580915050906001820390600052602060002090600402016000909192909190915060008201518160000155602082015181600101556040820151816002015560608201518160030160006101000a81548160ff02191690831515021790555050505060086080604051908101604052806106a48152602001600254600a0a62e4e1c00281526020016109c48152602001600115158152509080600181540180825580915050906001820390600052602060002090600402016000909192909190915060008201518160000155602082015181600101556040820151816002015560608201518160030160006101000a81548160ff02191690831515021790555050505060086080604051908101604052806106a48152602001600254600a0a6301312d000281526020016107088152602001600115158152509080600181540180825580915050906001820390600052602060002090600402016000909192909190915060008201518160000155602082015181600101556040820151816002015560608201518160030160006101000a81548160ff02191690831515021790555050505060086080604051908101604052806106a48152602001600254600a0a63017d78400281526020016105dc8152602001600115158152509080600181540180825580915050906001820390600052602060002090600402016000909192909190915060008201518160000155602082015181600101556040820151816002015560608201518160030160006101000a81548160ff02191690831515021790555050505060086080604051908101604052806106a48152602001600254600a0a6302faf0800281526020016102588152602001600115158152509080600181540180825580915050906001820390600052602060002090600402016000909192909190915060008201518160000155602082015181600101556040820151816002015560608201518160030160006101000a81548160ff02191690831515021790555050505060086080604051908101604052806106a48152602001600254600a0a630717cbc002815260200160008152602001600115158152509080600181540180825580915050906001820390600052602060002090600402016000909192909190915060008201518160000155602082015181600101556040820151816002015560608201518160030160006101000a81548160ff021916908315150217905550505050565b6116ac806107306000396000f30060806040526004361061016a576000357c0100000000000000000000000000000000000000000000000000000000900463ffffffff168063042abdf8146101ba5780631c3a3f11146101e5578063228e892e146102125780632ce0b4f61461026c57806331a3b8731461029757806337fb7e21146102c2578063518ab2a8146103195780636b78311a146103445780637402c2b81461039157806374f81dc6146103eb57806379ba50971461041857806383c481c81461042f5780638a574c1a146104665780638da5cb5b14610493578063a4cb0a7a146104ea578063a602452414610521578063ae1dd78c1461054c578063bec17f6914610563578063bee2e13414610592578063d0ca12ba146105bd578063d4810b61146105e8578063d4ee1d9014610613578063e1e158a51461066a578063eedbe31d14610695578063f2fde38b146106c0578063fad1106b14610703578063fc0c546a14610730578063ff3a5eea14610787575b6101726107b6565b8061018157506101806107e3565b5b151561018c57600080fd5b6701aa535d3d0c000034101515156101a357600080fd5b6101ad3334610813565b15156101b857600080fd5b005b3480156101c657600080fd5b506101cf610bda565b6040518082815260200191505060405180910390f35b3480156101f157600080fd5b5061021060048036038101908080359060200190929190505050610be6565b005b34801561021e57600080fd5b5061023d60048036038101908080359060200190929190505050610c7d565b604051808581526020018481526020018381526020018215151515815260200194505050505060405180910390f35b34801561027857600080fd5b50610281610cc9565b6040518082815260200191505060405180910390f35b3480156102a357600080fd5b506102ac610cd1565b6040518082815260200191505060405180910390f35b3480156102ce57600080fd5b506102d7610cdd565b604051808273ffffffffffffffffffffffffffffffffffffffff1673ffffffffffffffffffffffffffffffffffffffff16815260200191505060405180910390f35b34801561032557600080fd5b5061032e610d03565b6040518082815260200191505060405180910390f35b34801561035057600080fd5b5061038f600480360381019080803573ffffffffffffffffffffffffffffffffffffffff16906020019092919080359060200190929190505050610d09565b005b34801561039d57600080fd5b506103bc60048036038101908080359060200190929190505050610e60565b604051808581526020018481526020018381526020018215151515815260200194505050505060405180910390f35b3480156103f757600080fd5b5061041660048036038101908080359060200190929190505050610eac565b005b34801561042457600080fd5b5061042d610f43565b005b34801561043b57600080fd5b506104646004803603810190808035906020019092919080359060200190929190505050610ffe565b005b34801561047257600080fd5b5061049160048036038101908080359060200190929190505050611082565b005b34801561049f57600080fd5b506104a8611119565b604051808273ffffffffffffffffffffffffffffffffffffffff1673ffffffffffffffffffffffffffffffffffffffff16815260200191505060405180910390f35b3480156104f657600080fd5b5061051f600480360381019080803590602001909291908035906020019092919050505061113e565b005b34801561052d57600080fd5b506105366111c2565b6040518082815260200191505060405180910390f35b34801561055857600080fd5b506105616111ca565b005b34801561056f57600080fd5b506105786107b6565b604051808215151515815260200191505060405180910390f35b34801561059e57600080fd5b506105a76112a7565b6040518082815260200191505060405180910390f35b3480156105c957600080fd5b506105d26112ad565b6040518082815260200191505060405180910390f35b3480156105f457600080fd5b506105fd6112b5565b6040518082815260200191505060405180910390f35b34801561061f57600080fd5b506106286112ba565b604051808273ffffffffffffffffffffffffffffffffffffffff1673ffffffffffffffffffffffffffffffffffffffff16815260200191505060405180910390f35b34801561067657600080fd5b5061067f6112e0565b6040518082815260200191505060405180910390f35b3480156106a157600080fd5b506106aa6112ec565b6040518082815260200191505060405180910390f35b3480156106cc57600080fd5b50610701600480360381019080803573ffffffffffffffffffffffffffffffffffffffff169060200190929190505050611453565b005b34801561070f57600080fd5b5061072e6004803603810190808035906020019092919050505061152e565b005b34801561073c57600080fd5b506107456115c5565b604051808273ffffffffffffffffffffffffffffffffffffffff1673ffffffffffffffffffffffffffffffffffffffff16815260200191505060405180910390f35b34801561079357600080fd5b5061079c6107e3565b604051808215151515815260200191505060405180910390f35b6000426000111580156107cd5750635b25a4444211155b156107db57600190506107e0565b600090505b90565b600042635b42a5bc111580156107fd5750635b721b444211155b1561080b5760019050610810565b600090505b90565b6000806000806000806108246107e3565b945061082e6112ec565b935060648414156108425760009550610bcf565b84151561098d5760078481548110151561085857fe5b90600052602060002090600402016000015492506108be6127106108a560078781548110151561088457fe5b906000526020600020906004020160020154866115eb90919063ffffffff16565b8115156108ae57fe5b048461163190919063ffffffff16565b91506108d5600c600a61164f90919063ffffffff16565b6108e883896115eb90919063ffffffff16565b8115156108f157fe5b049050670de0b6b3a764000060065410151561098857600460009054906101000a900473ffffffffffffffffffffffffffffffffffffffff1673ffffffffffffffffffffffffffffffffffffffff166108fc3073ffffffffffffffffffffffffffffffffffffffff16319081150290604051600060405180830381858888f19350505050158015610986573d6000803e3d6000fd5b505b610acd565b60088481548110151561099c57fe5b9060005260206000209060040201600001549250610a026127106109e96008878154811015156109c857fe5b906000526020600020906004020160020154866115eb90919063ffffffff16565b8115156109f257fe5b048461163190919063ffffffff16565b9150610a19600c600a61164f90919063ffffffff16565b610a2c83896115eb90919063ffffffff16565b811515610a3557fe5b049050670de0b6b3a7640000600654101515610acc57600460009054906101000a900473ffffffffffffffffffffffffffffffffffffffff1673ffffffffffffffffffffffffffffffffffffffff166108fc3073ffffffffffffffffffffffffffffffffffffffff16319081150290604051600060405180830381858888f19350505050158015610aca573d6000803e3d6000fd5b505b5b600360009054906101000a900473ffffffffffffffffffffffffffffffffffffffff1673ffffffffffffffffffffffffffffffffffffffff16639c1f020a89836040518363ffffffff167c0100000000000000000000000000000000000000000000000000000000028152600401808373ffffffffffffffffffffffffffffffffffffffff1673ffffffffffffffffffffffffffffffffffffffff16815260200182815260200192505050600060405180830381600087803b158015610b9257600080fd5b505af1158015610ba6573d6000803e3d6000fd5b505050508060056000828254019250508190555086600660008282540192505081905550600195505b505050505092915050565b670de0b6b3a764000081565b6000809054906101000a900473ffffffffffffffffffffffffffffffffffffffff1673ffffffffffffffffffffffffffffffffffffffff163373ffffffffffffffffffffffffffffffffffffffff16141515610c4157600080fd5b6001600882815481101515610c5257fe5b906000526020600020906004020160030160006101000a81548160ff02191690831515021790555050565b600881815481101515610c8c57fe5b90600052602060002090600402016000915090508060000154908060010154908060020154908060030160009054906101000a900460ff16905084565b635b721b4481565b670de0b6b3a764000081565b600460009054906101000a900473ffffffffffffffffffffffffffffffffffffffff1681565b60055481565b6000809054906101000a900473ffffffffffffffffffffffffffffffffffffffff1673ffffffffffffffffffffffffffffffffffffffff163373ffffffffffffffffffffffffffffffffffffffff16141515610d6457600080fd5b600360009054906101000a900473ffffffffffffffffffffffffffffffffffffffff1673ffffffffffffffffffffffffffffffffffffffff16639c1f020a83836040518363ffffffff167c0100000000000000000000000000000000000000000000000000000000028152600401808373ffffffffffffffffffffffffffffffffffffffff1673ffffffffffffffffffffffffffffffffffffffff16815260200182815260200192505050600060405180830381600087803b158015610e2957600080fd5b505af1158015610e3d573d6000803e3d6000fd5b50505050610e568160055461163190919063ffffffff16565b6005819055505050565b600781815481101515610e6f57fe5b90600052602060002090600402016000915090508060000154908060010154908060020154908060030160009054906101000a900460ff16905084565b6000809054906101000a900473ffffffffffffffffffffffffffffffffffffffff1673ffffffffffffffffffffffffffffffffffffffff163373ffffffffffffffffffffffffffffffffffffffff16141515610f0757600080fd5b6000600882815481101515610f1857fe5b906000526020600020906004020160030160006101000a81548160ff02191690831515021790555050565b600160009054906101000a900473ffffffffffffffffffffffffffffffffffffffff1673ffffffffffffffffffffffffffffffffffffffff163373ffffffffffffffffffffffffffffffffffffffff161415610ffc57600160009054906101000a900473ffffffffffffffffffffffffffffffffffffffff166000806101000a81548173ffffffffffffffffffffffffffffffffffffffff021916908373ffffffffffffffffffffffffffffffffffffffff1602179055505b565b6000809054906101000a900473ffffffffffffffffffffffffffffffffffffffff1673ffffffffffffffffffffffffffffffffffffffff163373ffffffffffffffffffffffffffffffffffffffff1614151561105957600080fd5b8060078381548110151561106957fe5b9060005260206000209060040201600001819055505050565b6000809054906101000a900473ffffffffffffffffffffffffffffffffffffffff1673ffffffffffffffffffffffffffffffffffffffff163373ffffffffffffffffffffffffffffffffffffffff161415156110dd57600080fd5b60016007828154811015156110ee57fe5b906000526020600020906004020160030160006101000a81548160ff02191690831515021790555050565b6000809054906101000a900473ffffffffffffffffffffffffffffffffffffffff1681565b6000809054906101000a900473ffffffffffffffffffffffffffffffffffffffff1673ffffffffffffffffffffffffffffffffffffffff163373ffffffffffffffffffffffffffffffffffffffff1614151561119957600080fd5b806008838154811015156111a957fe5b9060005260206000209060040201600001819055505050565b635b25a44481565b6000809054906101000a900473ffffffffffffffffffffffffffffffffffffffff1673ffffffffffffffffffffffffffffffffffffffff163373ffffffffffffffffffffffffffffffffffffffff1614151561122557600080fd5b600460009054906101000a900473ffffffffffffffffffffffffffffffffffffffff1673ffffffffffffffffffffffffffffffffffffffff166108fc3073ffffffffffffffffffffffffffffffffffffffff16319081150290604051600060405180830381858888f193505050501580156112a4573d6000803e3d6000fd5b50565b60065481565b635b42a5bc81565b600081565b600160009054906101000a900473ffffffffffffffffffffffffffffffffffffffff1681565b6701aa535d3d0c000081565b60008060006112f96107b6565b8061130857506113076107e3565b5b151561131357600080fd5b61131b6107b6565b156113ae57600090505b6007805490508110156113ad5760078181548110151561134157fe5b906000526020600020906004020160010154820191508160055411158015611393575060078181548110151561137357fe5b906000526020600020906004020160030160009054906101000a900460ff165b156113a05780925061144e565b8080600101915050611325565b5b6113b66107e3565b1561144957600090505b600880549050811015611448576008818154811015156113dc57fe5b90600052602060002090600402016001015482019150816005541115801561142e575060078181548110151561140e57fe5b906000526020600020906004020160030160009054906101000a900460ff165b1561143b5780925061144e565b80806001019150506113c0565b5b606492505b505090565b6000809054906101000a900473ffffffffffffffffffffffffffffffffffffffff1673ffffffffffffffffffffffffffffffffffffffff163373ffffffffffffffffffffffffffffffffffffffff161415156114ae57600080fd5b600073ffffffffffffffffffffffffffffffffffffffff168173ffffffffffffffffffffffffffffffffffffffff16141515156114ea57600080fd5b80600160006101000a81548173ffffffffffffffffffffffffffffffffffffffff021916908373ffffffffffffffffffffffffffffffffffffffff16021790555050565b6000809054906101000a900473ffffffffffffffffffffffffffffffffffffffff1673ffffffffffffffffffffffffffffffffffffffff163373ffffffffffffffffffffffffffffffffffffffff1614151561158957600080fd5b600060078281548110151561159a57fe5b906000526020600020906004020160030160006101000a81548160ff02191690831515021790555050565b600360009054906101000a900473ffffffffffffffffffffffffffffffffffffffff1681565b60008060008414806115fd5750600083145b1561160b576000915061162a565b828402905082848281151561161c57fe5b0414151561162657fe5b8091505b5092915050565b600080828401905083811015151561164557fe5b8091505092915050565b60008060008314156116645760019150611679565b82840a905083811015151561167557fe5b8091505b50929150505600a165627a7a723058200d4de5c72941de45d4eaadf11f415527b4a358a9166fffbdeb1fbb80ae4ed8b60029",
  "source": "pragma solidity ^0.4.22;\n\n//standard library for uint\nlibrary SafeMath { \n  function mul(uint256 a, uint256 b) internal pure returns (uint256) {\n    if (a == 0 || b == 0){\n        return 0;\n    }\n    uint256 c = a * b;\n    assert(c / a == b);\n    return c;\n  }\n\n  function sub(uint256 a, uint256 b) internal pure returns (uint256) {\n    assert(b <= a);\n    return a - b;\n  }\n\n  function add(uint256 a, uint256 b) internal pure returns (uint256) {\n    uint256 c = a + b;\n    assert(c >= a);\n    return c;\n  }\n\n  function pow(uint256 a, uint256 b) internal pure returns (uint256){ //power function\n    if (b == 0){\n      return 1;\n    }\n    uint256 c = a**b;\n    assert (c >= a);\n    return c;\n  }\n}\n\n//standard contract to identify owner\ncontract Ownable {\n\n  address public owner;\n\n  address public newOwner;\n\n  modifier onlyOwner() {\n    require(msg.sender == owner);\n    _;\n  }\n  \n  function transferOwnership(address _newOwner) public onlyOwner {\n    require(_newOwner != address(0));\n    newOwner = _newOwner;\n  }\n\n  function acceptOwnership() public {\n    if (msg.sender == newOwner) {\n      owner = newOwner;\n    }\n  }\n}\n//Abstract Token contract\ncontract TradeRiserToken{\n  function setCrowdsaleContract (address) public;\n  function sendCrowdsaleTokens(address, uint256)  public;\n}\n\n//Crowdsale contract\ncontract TradeRiserCrowdsale is Ownable{\n\n  using SafeMath for uint;\n\n  uint decimals = 6;\n\n  // Token contract address\n  TradeRiserToken public token;\n\n  address public distributionAddress;\n\n  // Constructor\n  constructor(address _tokenAddress) public {\n    token = TradeRiserToken(_tokenAddress);\n    owner = 0x75B2eBbBeFa94a206a8B15ca9efBa2e314031F77;\n\n    distributionAddress = 0xE9dD7dFF9599f6228c59B2E5874163cDe42250EC;\n\n    setupStages();\n\n    token.setCrowdsaleContract(this);    \n  }\n\n  uint public constant PRE_ICO_START = 0; //1528070460; //06/04/2018 12:01:00 AM GMT\n  uint public constant PRE_ICO_FINISH = 1529193540; //06/16/2019 11:59:00 PM GMT\n\n  uint public constant PRE_ICO_MIN_CAP = 1 ether; //ether\n\n  uint public constant ICO_START = 1531094460; //07/09/2018 12:01:00 AM GMT\n  uint public constant ICO_FINISH = 1534204740; //08/13/2018 11:59:00 PM GMT\n\n  uint public constant ICO_MIN_CAP = 1 ether; //ether\n\n  uint public tokensSold;\n  uint public ethCollected;\n\n  uint public constant MIN_DEPOSIT = 0.12 ether;\n\n  struct Stage {\n    uint tokensPrice;\n    uint tokensDistribution;\n    uint discount;\n    bool isActive;\n  }\n  \n  Stage[] public preIcoStages;\n  Stage[] public icoStages;\n\n  function setupStages () internal {\n    preIcoStages.push(Stage(1700,5000000 * ((uint)(10)**(uint)(decimals)), 7000, true));\n    preIcoStages.push(Stage(1700,6000000 * ((uint)(10)**(uint)(decimals)), 4000, true));\n    preIcoStages.push(Stage(1700,10000000 * ((uint)(10)**(uint)(decimals)), 3500, true));\n\n    icoStages.push(Stage(1700,15000000 * ((uint)(10)**(uint)(decimals)), 2500, true));\n    icoStages.push(Stage(1700,20000000 * ((uint)(10)**(uint)(decimals)), 1800, true));\n    icoStages.push(Stage(1700,25000000 * ((uint)(10)**(uint)(decimals)), 1500, true));\n    icoStages.push(Stage(1700,50000000 * ((uint)(10)**(uint)(decimals)), 600, true));\n    icoStages.push(Stage(1700,119000000 * ((uint)(10)**(uint)(decimals)), 0, true)); \n  }\n  \n  function stopPreIcoPhase (uint _phase) external onlyOwner {\n    preIcoStages[_phase].isActive = false;\n  }\n\n  function stopIcoPhase (uint _phase) external onlyOwner {\n    icoStages[_phase].isActive = false;\n  }\n\n  function startPreIcoPhase (uint _phase) external onlyOwner {\n    preIcoStages[_phase].isActive = true;\n  }\n\n  function startIcoPhase (uint _phase) external onlyOwner {\n    icoStages[_phase].isActive = true;\n  }\n\n  function changePreIcoStageTokenPrice (uint _phase, uint _tokenPrice) external onlyOwner {\n    preIcoStages[_phase].tokensPrice = _tokenPrice;\n  }\n  \n  function changeIcoStageTokenPrice (uint _phase, uint _tokenPrice) external onlyOwner {\n    icoStages[_phase].tokensPrice = _tokenPrice;\n  }\n  \n  function () public payable {\n    require (isPreIco() || isIco());\n    require (msg.value >= MIN_DEPOSIT);\n    require (buy(msg.sender, msg.value));\n  }\n\n  function buy (address _address, uint _value) internal returns(bool) {\n    bool isIcoNow = isIco();\n    uint currentStage = getCurrentStage();\n    if (currentStage == 100){\n      return false;\n    }\n    \n    if (!isIcoNow){\n      uint _phasePrice = preIcoStages[currentStage].tokensPrice;\n      uint _tokenPrice = _phasePrice.add(_phasePrice.mul(preIcoStages[currentStage].discount)/10000);\n      uint tokensToSend = _value.mul(_tokenPrice)/(uint(10).pow(uint(12))); //decimals difference;\n\n      if(ethCollected >= PRE_ICO_MIN_CAP){\n        distributionAddress.transfer(address(this).balance);\n      }\n    }else{\n      _phasePrice = icoStages[currentStage].tokensPrice;\n      _tokenPrice = _phasePrice.add(_phasePrice.mul(icoStages[currentStage].discount)/10000);\n      tokensToSend = _value.mul(_tokenPrice)/(uint(10).pow(uint(12))); //decimals difference;\n\n      if(ethCollected >= ICO_MIN_CAP){\n        distributionAddress.transfer(address(this).balance);\n      }\n    }\n\n    token.sendCrowdsaleTokens(_address,tokensToSend);\n    \n    tokensSold += tokensToSend;\n    ethCollected += _value;\n    \n    return true;\n  }\n\n  function getCurrentStage () public view returns(uint) {\n    require (isPreIco() || isIco());\n    uint buffer;\n\n    if(isPreIco()){\n      for (uint i = 0; i < preIcoStages.length; i++){\n        buffer += preIcoStages[i].tokensDistribution;\n        if(tokensSold <= buffer && preIcoStages[i].isActive){\n          return i;\n        }\n      }\n    }\n\n    if(isIco()){\n      for (i = 0; i < icoStages.length; i++){\n        buffer += icoStages[i].tokensDistribution;\n        if(tokensSold <= buffer && preIcoStages[i].isActive){\n          return i;\n        }\n      }\n    }\n    return 100; //something went wrong\n  }\n\n  function isPreIco () public view returns(bool) {\n    if(PRE_ICO_START <= now && now <= PRE_ICO_FINISH){\n      return true;\n    }\n    return false;\n  }\n\n  function isIco() public view returns(bool) {\n    if(ICO_START <= now && now <= ICO_FINISH){\n      return true;\n    }\n    return false;\n  }\n\n  function sendCrowdsaleTokensManually (address _address, uint _value) external onlyOwner {\n    token.sendCrowdsaleTokens(_address,_value);\n    tokensSold = tokensSold.add(_value);\n  }\n\n  //if something went wrong\n  function sendEtherManually () public onlyOwner {\n    distributionAddress.transfer(address(this).balance);\n  }\n}\n",
  "sourcePath": "/home/romuch/Desktop/TradeRiserTruffle/contracts/TradeRiserCrowdsaleAll.sol",
  "compiler": {
    "name": "solc",
    "version": "0.4.22+commit.4cb486ee.Emscripten.clang"
  },
  "schemaVersion": "1.0.1",
  "updatedAt": "2018-05-23T12:47:50.878Z"
}